S018000043726561746564207769746820666c6578326865780d
S123c10020110100000000000000000000000000000000becc14bfc111bdcd247dc10f2798
S123c120198ec8408614a784bdd4062624bec111bfcc14a684b7cc112047bec111a6848117
S123c1402e2709bdcd212504813923177dc11027037ecd038ec840b6cc0ca7032a23b7c15c
S123c1600f20bebec111bfcc14bdcd2784038ec840a703bdcd2725037ec223becc14bfc1cd
S123c180118ec8408610a784bdd4062645bdc2e826408ec370bdcd1e8ec8426f845fbdcd87
S123c1a0398ec395bdcd1e8ec844c608bdc3398ec39cc603bdc3398ec84fbdcd39bdcd240e
S123c1c08ec348bdcd1ebdcd248d6526087fc10e20217ec22abecc14a684812e2710bdcd1b
S123c1e021254081392207bdcd2724fb20dbbdc30125308d468d3926f58ec8408610a78426
S123c200bdd4062625bdc2e826208ec360bdcd1e5f8ec855bdcd39bdcd247ec11cbdcd24ae
S123c2207ecd038ec840c61ae701bdcd3f7ecd03b6cc11810d2703b1cc02398ec840860612
S123c240a784bdd40626e37cc110bdcd24bdc2e827037ec2de8ec8406d0426037ec2e72be3
S123c260eca60f841026e68ec8447dc10e262dbfcc418ec103bfcc3dbecc3d8cc10e271cf5
S123c280a6843001bfcc3dbecc414d2708813f2704a18426b83001bfcc4120dc8ec844c6e9
S123c2a0088d4f862ebdcd18c6038d468620bdcd188ec855c601bdcd398ec840a60f85c097
S123c2c02788858027098540270a8ec39120088ec38d20038ec389c6048d177ec24aa601fc
S123c2e0810827037ec22a398ec8408607a7847ed406a68426028620bdcd1830015a26f201
S123c300397fc10e8ec103c60b6f8430015a26f9becc14a684812e27068ec0ff7ecd2d7ced
S123c320cc15c6038ec10bbdcd27250aa78430015a2af41a01391cfe39a6842709bdcd189e
S123c34030015a26f4395f39204e414d4520202054595045202053495a45202050525404cb
S123c360534543544f5253204c454654203d2004434154414c4f47204f4620445249564580
S122c380204e554d42455220042020205720202044202057444449534b3a20042020236b
S903c1003b
