:20F000007EF1287EF3751A08397EF38E7EF3927EF4997EF3C97EF41A7EF3E47EF3AB7EF363
:20F02000A97EF3BD7EF3B17EF3B37EF3AD7EF2257EF4097EF3F2F5A2F5CDF475F567F5759A
:20F04000FDBFFEC9F44544FFC949FFD147F35A4BFD404DF24950F30A54F2A156F33158F332
:13F060006F5AFA042FF2762EF28B5EF28F0AF27A0DF2251B
:20F07C00004555524F434F4D204D4F4E49544F522056352E3420737065632E0D0A04465259
:20F09C004F4D3A200420544F3A20042056616C75653A20043E044252500443433D04413D4F
:20F0BC0004423D0444503D04583D04593D04553D0450433D04533D0448415244434F50594D
:20F0DC000D10FFEF7C10CEEF00BDF41ABDF47E8148261E8EC080BFCC14108EEF5DA6A0A775
:20F0FC0080810D26F8BDCD4B10FEEF7C1CAF7ECD038142270510FEEF7C3BBDF1E7B6F07C07
:20F11C00B7EF867FEF85BDF3BD1603EC10CEEF00CEFFF0CC030336043602CC030336064F17
:20F13C005F1F01CEF00036161183C00026F8CEFFF08EF20F8D668D643450BDF1E7B6F07C4D
:20F15C00B7EF86BDF5ED35508D528D50CCEFDEFDEFDECEFFF0108EEFF08E0303CC03038DF7
:20F17C00638E07078D5C8E0B0B8D578E0F0F8D528EEDD49F7C8EF0DD9F7A8EF07DBDF3B33C
:20F19C008EF4FE9F768EF4F29F788EEF5D108EF0D4A6A0A780810D26F8160B88C603A68046
:20F1BC008D045A26F93934541F89335C1F013616361636164F8E0000CEC000BDF8D735D42D
:20F1DC00FFFF1F103616AFA3EDA33986EF1F8B8EFCF06F016F036F0B6F84865EA70A863E3E
:20F1FC00A701A702A70BA7038603A70AA7048615A7043900010204050608090A0C0D0E8608
:20F21C003FBDF3CF8607BDF3CF10CEEF0086EF1F8B0F858EF0B0BDF3B1BDF3C9BDF47ECE83
:20F23C00F046BDF34025D8BDF02A6ED801BDF4AE9F7E25CBBDF3ADBDF3AB301FBDF3C9BDC8
:20F25C00F47ECEF064BDF34024E0BDF4D9BDF4C325ADA784A18426A720E28D2220D98D1EC8
:20F27C00860DBDF3CF8EEF7EBDF3A99E7E20C89E7E20C49E7E301F9F7EBDF3BD20E79E7EF0
:20F29C0030019F7E39BDF37525C6DD8030019F82BDF3BD8EEF80BDF3A9C610BEEF80341002
:20F2BC00BCEF82272E3404BDF3AB35049F808D2E5A26ED3510C611BDF3ADBCEF8227768DCD
:20F2DC001D5A27CCA680847F81202402865FBDF3E420E786033DBDF3AD5A26FA20D5347FF3
:20F2FC00BDF4632407BDF41A810D274935FFBDF3752545FDEF803001BFEF828EF0A7BDF385
:20F31C00B3BDF4C1BEEF80A784BCEF822727A78020F7BDF3F2BDF46825F8BDF40D24F6BD2E
:20F33C00F63220F1847FA1C4271133431183F07326F21A01397EF2257EF21B1CFE39BDF4DB
:20F35C00AE25F51F12BDF3BD10CEEDD41CAF4F1F8B1F25108ECD0320F58EF09A8D39BDF472
:20F37C00AE250E34108EF0A18D2DBDF4AE250035063944444444840F8B9019894019398DFC
:20F39C0000A6848DED8D2CA6808DEB20268DF28DF08620201E8D0AA680810427E18D292010
:20F3BC00F6860D8D23860A201F0F8520888D4F811827823402BDF4682404811827EB8D31EF
:20F3DC002404811827E335027DEF85102602477DEF86102702403404F6FCF4C50227F9B778
:20F3FC00FCF535843402B6FCF4840135828DF526FC8DF12706B6FCF51A01391CFE397DEF26
:20F41C005B2621B6EF0E34028D127FEF0E8D0D8D138D093402A661B7EF0EA6E13402861B0B
:20F43C008DA635828D2124FC397DEF8626B634027DEF5C2610B6FCF12A09B6FCF0B7EF5A45
:20F45C0073EF5C1A043582B6EF8626A58DE026031CFE39B6EF5A7FEF5C8119271B7DEF8B82
:20F47C0027138161250F817D240B7DEF592604817B240284DF1A013973EF8B20F834105F83
:20F49C008D10250C1F103510ED84C604BDF3C93935908D11250E34041F898D0925041E8945
:20F4BC001F013504398D1325FB48484848B7EF848D0825F0BBEF841CFE39BDF3C981302B14
:20F4DC00B481392F0C84DF81412BAA81462EA68007840F1CFE396D6B26026A6A6A6BAE6AA4
:20F4FC0020038E0000863EB7FCF3B6FCF286EF1F8B10DF7C10CEEF008D0316FD0C8EF0B6F7
:20F51C00DE7C86028D0C4F8D09BDF3B38EEF7C16FE7BC6043406C6028D0635065A26F5393C
:20F53C00108EF3B1ADA51E13108EF3A9A662ADA61E13396E9FEF706E9FEF726E9FEF746E33
:20F55C009FEF766E9FEF786E9FEF7AE6808D0A3A270630026D842AF5393434A680A1A026CD
:20F57C00035A26F735B4000A010203195400FA07000600F7BDFA570C0C0808F7FDF80DFD65
:20F59C007F00FEC0000034431A5086FF34063430FEEFDE86EF1F01EC8410AE023636FFEF24
:20F5BC00DE3526ED8410AF023510ED8410AF0235C334431A50FEEFDE3736FFEFDEED8410EF
:20F5DC00AF021E0186FF1E01ED8410AF021E0135C38EF582CEEF31108E0011EC81EDC13164
:20F5FC003F26F8963D5FFDFCF6484848488B40DD03CC01F8DD090F0E0A0E0F5B0F0BDC4C1A
:20F61C009338F3EF31DD0CDC4CDD074F5FDD05DD0186FF971839347F1A50C6EF1F9B0D1077
:20F63C00260B10DF1110CEEE400C1020020C0FA7E49E421F12C6E0BDF5A29E441F12C6E4C5
:20F65C00BDF5A2A6E40D02102600FE847FA7E4BDFEC98120102500EAA6E4BDFDBFDC05F3C4
:20F67C00EF3BDD0510930925074F5FDD051601C1BDFEC9BDF5CDBDF5CD0D0F26070F101028
:20F69C00DE1135FF0F0F20FA0F0E0D5B27E220E30D5B27050F0EBDFEC98601970E20D48687
:20F6BC00FFB7EF5820CA4F20F886FFB7EF5920C04F20F88D2420B99E03308B960B3402C692
:20F6DC00803D308B338900804FBDF8D70D4A2B079E4A3D301F26FB358210BEEF313420FC6C
:20F6FC00EF4E8DD335204C847F970B48B7FCF7313E26EADC07B3EF312C029638DD07DC0C1C
:20F71C00B3EF312C029638DD0C3910BEEF313420B6EF0B8004847F970BFCEF4E8D998B03D4
:20F73C00B7EF0B352048B7FCF7313E26E1DC07F3EF314FDD07DC0CF3EF3110B3EF384FDD05
:20F75C000C399E3EA6E4486E960A02260D9E4831E4BDF5671026FF186E94D6025A9E466E70
:20F77C0095F68CF68CF68CF68CF68CF6ACF68CF8FFF68CF68CF84DF8B5F880F86AF6CFF8A6
:20F79C0048F68CF89FF8B5F8BEF8CCF6A4F68CF68CF8BEF8CCF89FFF5AF8FBF865FF70FFFF
:20F7BC0095F68CF68CF68CF68CF68CF6ACF68CF8FFF870F68CF84DF68CF880F86AF6CFF8AB
:20F7DC0048F68CF89FF8B5F8BEF8CCF6A4F68CF68CF68CF68CF68CFF5AF865F8FBF68CF640
:20F7FC008CF931F950F95BF961F968F96EF93EF93A0141F95742F9CA43F98A44F6C545F974
:20F81C007F46FF6347FF6049F6CC3DF98650F6BB51F6C24BFF705AFF9570F6BB71F6C24BF1
:20F83C00FF704CFF706BFF9553FF95FFBDF7262015DC0710930C2605BDF6F52009B3EF312D
:20F85C002C029638DD0716FE278620BDF9184F5FDD0520F2DC0527EEB3EF3BDD058620BD43
:20F87C00FDBF20E2DE03DC4E30CB4F8D4EDD05F7FCF70F0BDC4C9338F3EF31DD0CDC4CDDA4
:20F89C000720C3DC0CD33894383406DC07F3EF31943810A3E127AF20ABDC0710930C27A613
:20F8BC00209BDC05F3EF3B109309249ADD052096DC052792B3EF3BDD05208B34101F891F62
:20F8DC00011F0236363636361611A3E426F535903422862010AE8110AFC14A26F735A20352
:20F8FC004A2017F6FCFA3404CA40F7FCFA8E17703D301F26FB3504F7FCFA20BD8020913624
:20F91C002412D6323D933850890040D30CB3EF319438DD07398DE58604970216FD558DDC6B
:20F93C0020148D04861020F1802091372205D63C3DDD05398DF20F0216FD35860620269705
:20F95C001586082020B7EF16860A20199713860C20131E8996131F029E15BDFF1DE884E764
:20F97C008420D38602970216FD09860E20F7DC0710930C273693314F5C5C3406DC0C5CC014
:20F99C000134068E00001705931F13ECE493318E000017058717FF38350610A3E426E03581
:20F9BC0006D3311F028E00001705B51605A8DC0710930C27F693314F5C5CC00134068E00DB
:20F9DC00001705581F13ECE4D3318E000017054C1E1317FEFB350610930C26DED3311F0247
:1AF9FC008E000017057A20C38EFA11A680B7FD3C26F97EF22545584954004D
:20FA1F0088007088F888888870888888887088008888888870500070087888785000708817
:20FA3F00888870500088888898687088B08888A89001010911A1C1E10000000000000020D0
:20FA5F00202020200020505050000000005050F850F850502078A07028F020C0C81020409F
:20FA7F00981820505060A89068102040000000001020404040201040201010102040002057
:20FA9F00A870A82000002020F820200001010101212141000000F800000000000000002050
:20FABF002000081020408000708898A8C8887020602020202070708808102040F8F8102017
:20FADF001008887010305090F81010F880F008088870304080F0888870F8081020404040FF
:20FAFF00708888708888707088887808106000003030003030013131013131611020408030
:20FB1F004020100000F800F8000040201008102040708808102000203048B8A8B8403870B6
:20FB3F008888F8888888F08888F08888F070888080808870E09088888890E0F88080F080C6
:20FB5F0080F8F88080F880808078808098888878888888F888888870202020202070381016
:20FB7F0010101090608890A0C0A09088808080808080F888D8A8A88888888888C8A8988836
:20FB9F008870888888888870F08888F080808070888888A89068F08888F0A09088788080FE
:20FBBF00700808F0F82020202020208888888888887088888888885020888888A8A8A85066
:20FBDF008888502050888888888850202020F80810204080F8302020202020300080402016
:20FBFF00100800301010101010302070A820202020010101010101F94020100000000000F7
:20FC1F000070087888788080F0888888F0000070888080700808788888887800007888F865
:20FC3F0080703048E040404040699989996909F18080F088888888200020202020200909F4
:20FC5F000909099161808090A0D08888602020202020700000D0A8A8A8A80000F088888800
:20FC7F008800007088888870B1C989C9B18181699989996909090000B0C8808080000078D7
:20FC9F00807008F04040E04040483000008888889868000088888850200000888888A850D5
:20FCBF0000008850205088898989996909F10000F8102040F83040408040403020202020FE
:11FCDF002020206010100810106040A81000000000B4
:10FD000000000000000000000000000000000000F3
:20FD4000BDFFD486FD1F8BCCC10D9738D7308D39D6302A080F38BDFFD97EF225C50126F02B
:20FD6000CC018097328EC18086848D1D9730963085022608850126F6859C26D89633A785F2
:20FD80005C28EB4F1F8B7EC1008D008D00393416318C2410AEA6B6EF323422EC61A484E454
:20FDA00001ED84308840BCEF0325043089C0006AE426E83263359601FFC07FF01FFC073448
:20FDC0007681201025009FFEEF40817F2608B6EF3A4033C620337DEF592726815E272281B7
:20FDE0005F271E340284DF815A3502231485202702801D806340F6EF3A3D4353C300012019
:20FE000006F6EF3A80203D33CBBEEF0510BEEF07312117012317FF76318C17E6C456240457
:20FE200030890080308840BCEF0325043089C0006EA6205120322005CC07042003CC071068
:20FE40003406A6C044E6613DE384ED84308840BCEF0325043089C0006AE426E632627DEFC0
:20FE600058270317005735F6F6EF3AA6C0444444AB84A784308840BCEF0325043089C00074
:20FE80005A26E820D9F6EF3AA6C044AB84A784308840BCEF0325043089C0005A26EA20BE4E
:20FEA000308840BCEF0325043089C00039FE003F800FE003F87E001F8007E001F834029651
:20FEC000010F018D0C970135827DEF0E264E73EF5B3436C6EF1F9B9E05109E0731210D01ED
:20FEE0002707D632C0025031A58D4DD6320D012702C602318CBF0D582703318CB031A63480
:20FF000004ECA4A884E801ED843088409C0325043089C0006AE426E9326135B6398D1934A0
:20FF200002B6EF0BC6803D308B17FF77A6E45F4C1A01564A26FC35821F10BEEF033406C49E
:20FF400006E7E4E66144565454C04030851F2086403D50890040308B35867CEF0216F72F18
:20FF60004F200286010D5B2703BDFEC9970120028D0316F717BEEF0510BEEF0731213430D9
:20FF80008DB617FE093526F3EF3B10B3EF0924041F0120EA398DDEFCEF0710B3EF0C27D22E
:20FFA000B3EF314F5C5CC00134461F028E00008D873388404F17F91F354610B3EF0C26E6AB
:1DFFC0001F028E00008DB520A986FFB7EF597EF2254F20F786157EF632860520F906
:10FFF0000000F54FF553F557F55BF55FF563F0003D
:00000001FF
